{
	"data": {
		"bytecode": {
			"linkReferences": {
				"contracts/21_Interable_Map.sol": {
					"IterableMapping": [
						{
							"length": 20,
							"start": 94
						},
						{
							"length": 20,
							"start": 205
						},
						{
							"length": 20,
							"start": 317
						},
						{
							"length": 20,
							"start": 429
						},
						{
							"length": 20,
							"start": 541
						},
						{
							"length": 20,
							"start": 657
						},
						{
							"length": 20,
							"start": 788
						},
						{
							"length": 20,
							"start": 928
						},
						{
							"length": 20,
							"start": 1088
						},
						{
							"length": 20,
							"start": 1199
						},
						{
							"length": 20,
							"start": 1410
						},
						{
							"length": 20,
							"start": 1596
						},
						{
							"length": 20,
							"start": 1782
						}
					]
				}
			},
			"object": "608060405234801561001057600080fd5b50610d72806100206000396000f3fe608060405234801561001057600080fd5b506004361061002b5760003560e01c8063d230a0d514610030575b600080fd5b61003861003a565b005b600073__$a8e7e0aec7cebc61db4eca1e221c48aed6$__63bc2b405c90916000806040518463ffffffff1660e01b81526004016100799392919061080d565b60006040518083038186803b15801561009157600080fd5b505af41580156100a5573d6000803e3d6000fd5b50505050600073__$a8e7e0aec7cebc61db4eca1e221c48aed6$__63bc2b405c9091600160646040518463ffffffff1660e01b81526004016100e99392919061087f565b60006040518083038186803b15801561010157600080fd5b505af4158015610115573d6000803e3d6000fd5b50505050600073__$a8e7e0aec7cebc61db4eca1e221c48aed6$__63bc2b405c9091600260c86040518463ffffffff1660e01b8152600401610159939291906108f1565b60006040518083038186803b15801561017157600080fd5b505af4158015610185573d6000803e3d6000fd5b50505050600073__$a8e7e0aec7cebc61db4eca1e221c48aed6$__63bc2b405c9091600260c86040518463ffffffff1660e01b81526004016101c9939291906108f1565b60006040518083038186803b1580156101e157600080fd5b505af41580156101f5573d6000803e3d6000fd5b50505050600073__$a8e7e0aec7cebc61db4eca1e221c48aed6$__63bc2b405c9091600361012c6040518463ffffffff1660e01b815260040161023a93929190610963565b60006040518083038186803b15801561025257600080fd5b505af4158015610266573d6000803e3d6000fd5b5050505060005b600073__$a8e7e0aec7cebc61db4eca1e221c48aed6$__63deb3d89690916040518263ffffffff1660e01b81526004016102a7919061099a565b602060405180830381865af41580156102c4573d6000803e3d6000fd5b505050506040513d601f19601f820116820180604052508101906102e891906109e6565b81101561041b5760008073__$a8e7e0aec7cebc61db4eca1e221c48aed6$__63d1aa9e7e9091846040518363ffffffff1660e01b815260040161032c929190610a22565b602060405180830381865af4158015610349573d6000803e3d6000fd5b505050506040513d601f19601f8201168201806040525081019061036d9190610a77565b905060648261037c9190610ad3565b600073__$a8e7e0aec7cebc61db4eca1e221c48aed6$__63732a2ccf9091846040518363ffffffff1660e01b81526004016103b8929190610b2d565b602060405180830381865af41580156103d5573d6000803e3d6000fd5b505050506040513d601f19601f820116820180604052508101906103f991906109e6565b1461040757610406610b56565b5b50808061041390610b85565b91505061026d565b50600073__$a8e7e0aec7cebc61db4eca1e221c48aed6$__634c60db9c909160016040518363ffffffff1660e01b8152600401610459929190610b2d565b60006040518083038186803b15801561047157600080fd5b505af4158015610485573d6000803e3d6000fd5b505050506003600073__$a8e7e0aec7cebc61db4eca1e221c48aed6$__63deb3d89690916040518263ffffffff1660e01b81526004016104c5919061099a565b602060405180830381865af41580156104e2573d6000803e3d6000fd5b505050506040513d601f19601f8201168201806040525081019061050691906109e6565b14610546576040517f08c379a000000000000000000000000000000000000000000000000000000000815260040161053d90610c2b565b60405180910390fd5b600073ffffffffffffffffffffffffffffffffffffffff16600073__$a8e7e0aec7cebc61db4eca1e221c48aed6$__63d1aa9e7e909160006040518363ffffffff1660e01b815260040161059b929190610c4b565b602060405180830381865af41580156105b8573d6000803e3d6000fd5b505050506040513d601f19601f820116820180604052508101906105dc9190610a77565b73ffffffffffffffffffffffffffffffffffffffff1614610600576105ff610b56565b5b600373ffffffffffffffffffffffffffffffffffffffff16600073__$a8e7e0aec7cebc61db4eca1e221c48aed6$__63d1aa9e7e909160016040518363ffffffff1660e01b8152600401610655929190610caf565b602060405180830381865af4158015610672573d6000803e3d6000fd5b505050506040513d601f19601f820116820180604052508101906106969190610a77565b73ffffffffffffffffffffffffffffffffffffffff16146106ba576106b9610b56565b5b600273ffffffffffffffffffffffffffffffffffffffff16600073__$a8e7e0aec7cebc61db4eca1e221c48aed6$__63d1aa9e7e909160026040518363ffffffff1660e01b815260040161070f929190610d13565b602060405180830381865af415801561072c573d6000803e3d6000fd5b505050506040513d601f19601f820116820180604052508101906107509190610a77565b73ffffffffffffffffffffffffffffffffffffffff161461077457610773610b56565b5b565b8082525050565b600073ffffffffffffffffffffffffffffffffffffffff82169050919050565b60006107a88261077d565b9050919050565b6107b88161079d565b82525050565b6000819050919050565b6000819050919050565b6000819050919050565b60006107f76107f26107ed846107be565b6107d2565b6107c8565b9050919050565b610807816107dc565b82525050565b60006060820190506108226000830186610776565b61082f60208301856107af565b61083c60408301846107fe565b949350505050565b6000819050919050565b600061086961086461085f84610844565b6107d2565b6107c8565b9050919050565b6108798161084e565b82525050565b60006060820190506108946000830186610776565b6108a160208301856107af565b6108ae6040830184610870565b949350505050565b6000819050919050565b60006108db6108d66108d1846108b6565b6107d2565b6107c8565b9050919050565b6108eb816108c0565b82525050565b60006060820190506109066000830186610776565b61091360208301856107af565b61092060408301846108e2565b949350505050565b6000819050919050565b600061094d61094861094384610928565b6107d2565b6107c8565b9050919050565b61095d81610932565b82525050565b60006060820190506109786000830186610776565b61098560208301856107af565b6109926040830184610954565b949350505050565b60006020820190506109af6000830184610776565b92915050565b600080fd5b6109c3816107c8565b81146109ce57600080fd5b50565b6000815190506109e0816109ba565b92915050565b6000602082840312156109fc576109fb6109b5565b5b6000610a0a848285016109d1565b91505092915050565b610a1c816107c8565b82525050565b6000604082019050610a376000830185610776565b610a446020830184610a13565b9392505050565b610a548161079d565b8114610a5f57600080fd5b50565b600081519050610a7181610a4b565b92915050565b600060208284031215610a8d57610a8c6109b5565b5b6000610a9b84828501610a62565b91505092915050565b7f4e487b7100000000000000000000000000000000000000000000000000000000600052601160045260246000fd5b6000610ade826107c8565b9150610ae9836107c8565b9250817fffffffffffffffffffffffffffffffffffffffffffffffffffffffffffffffff0483118215151615610b2257610b21610aa4565b5b828202905092915050565b6000604082019050610b426000830185610776565b610b4f60208301846107af565b9392505050565b7f4e487b7100000000000000000000000000000000000000000000000000000000600052600160045260246000fd5b6000610b90826107c8565b91507fffffffffffffffffffffffffffffffffffffffffffffffffffffffffffffffff821415610bc357610bc2610aa4565b5b600182019050919050565b600082825260208201905092915050565b7f6572726f722073697a65206d6170000000000000000000000000000000000000600082015250565b6000610c15600e83610bce565b9150610c2082610bdf565b602082019050919050565b60006020820190508181036000830152610c4481610c08565b9050919050565b6000604082019050610c606000830185610776565b610c6d60208301846107fe565b9392505050565b6000819050919050565b6000610c99610c94610c8f84610c74565b6107d2565b6107c8565b9050919050565b610ca981610c7e565b82525050565b6000604082019050610cc46000830185610776565b610cd16020830184610ca0565b9392505050565b6000819050919050565b6000610cfd610cf8610cf384610cd8565b6107d2565b6107c8565b9050919050565b610d0d81610ce2565b82525050565b6000604082019050610d286000830185610776565b610d356020830184610d04565b939250505056fea2646970667358221220a6fcef9a9e6daa840ab0c332f401285cf56cea37e38f2aec2b045f6c5b4920f464736f6c634300080a0033",
			"opcodes": "PUSH1 0x80 PUSH1 0x40 MSTORE CALLVALUE DUP1 ISZERO PUSH2 0x10 JUMPI PUSH1 0x0 DUP1 REVERT JUMPDEST POP PUSH2 0xD72 DUP1 PUSH2 0x20 PUSH1 0x0 CODECOPY PUSH1 0x0 RETURN INVALID PUSH1 0x80 PUSH1 0x40 MSTORE CALLVALUE DUP1 ISZERO PUSH2 0x10 JUMPI PUSH1 0x0 DUP1 REVERT JUMPDEST POP PUSH1 0x4 CALLDATASIZE LT PUSH2 0x2B JUMPI PUSH1 0x0 CALLDATALOAD PUSH1 0xE0 SHR DUP1 PUSH4 0xD230A0D5 EQ PUSH2 0x30 JUMPI JUMPDEST PUSH1 0x0 DUP1 REVERT JUMPDEST PUSH2 0x38 PUSH2 0x3A JUMP JUMPDEST STOP JUMPDEST PUSH1 0x0 PUSH20 0x0 PUSH4 0xBC2B405C SWAP1 SWAP2 PUSH1 0x0 DUP1 PUSH1 0x40 MLOAD DUP5 PUSH4 0xFFFFFFFF AND PUSH1 0xE0 SHL DUP2 MSTORE PUSH1 0x4 ADD PUSH2 0x79 SWAP4 SWAP3 SWAP2 SWAP1 PUSH2 0x80D JUMP JUMPDEST PUSH1 0x0 PUSH1 0x40 MLOAD DUP1 DUP4 SUB DUP2 DUP7 DUP1 EXTCODESIZE ISZERO DUP1 ISZERO PUSH2 0x91 JUMPI PUSH1 0x0 DUP1 REVERT JUMPDEST POP GAS DELEGATECALL ISZERO DUP1 ISZERO PUSH2 0xA5 JUMPI RETURNDATASIZE PUSH1 0x0 DUP1 RETURNDATACOPY RETURNDATASIZE PUSH1 0x0 REVERT JUMPDEST POP POP POP POP PUSH1 0x0 PUSH20 0x0 PUSH4 0xBC2B405C SWAP1 SWAP2 PUSH1 0x1 PUSH1 0x64 PUSH1 0x40 MLOAD DUP5 PUSH4 0xFFFFFFFF AND PUSH1 0xE0 SHL DUP2 MSTORE PUSH1 0x4 ADD PUSH2 0xE9 SWAP4 SWAP3 SWAP2 SWAP1 PUSH2 0x87F JUMP JUMPDEST PUSH1 0x0 PUSH1 0x40 MLOAD DUP1 DUP4 SUB DUP2 DUP7 DUP1 EXTCODESIZE ISZERO DUP1 ISZERO PUSH2 0x101 JUMPI PUSH1 0x0 DUP1 REVERT JUMPDEST POP GAS DELEGATECALL ISZERO DUP1 ISZERO PUSH2 0x115 JUMPI RETURNDATASIZE PUSH1 0x0 DUP1 RETURNDATACOPY RETURNDATASIZE PUSH1 0x0 REVERT JUMPDEST POP POP POP POP PUSH1 0x0 PUSH20 0x0 PUSH4 0xBC2B405C SWAP1 SWAP2 PUSH1 0x2 PUSH1 0xC8 PUSH1 0x40 MLOAD DUP5 PUSH4 0xFFFFFFFF AND PUSH1 0xE0 SHL DUP2 MSTORE PUSH1 0x4 ADD PUSH2 0x159 SWAP4 SWAP3 SWAP2 SWAP1 PUSH2 0x8F1 JUMP JUMPDEST PUSH1 0x0 PUSH1 0x40 MLOAD DUP1 DUP4 SUB DUP2 DUP7 DUP1 EXTCODESIZE ISZERO DUP1 ISZERO PUSH2 0x171 JUMPI PUSH1 0x0 DUP1 REVERT JUMPDEST POP GAS DELEGATECALL ISZERO DUP1 ISZERO PUSH2 0x185 JUMPI RETURNDATASIZE PUSH1 0x0 DUP1 RETURNDATACOPY RETURNDATASIZE PUSH1 0x0 REVERT JUMPDEST POP POP POP POP PUSH1 0x0 PUSH20 0x0 PUSH4 0xBC2B405C SWAP1 SWAP2 PUSH1 0x2 PUSH1 0xC8 PUSH1 0x40 MLOAD DUP5 PUSH4 0xFFFFFFFF AND PUSH1 0xE0 SHL DUP2 MSTORE PUSH1 0x4 ADD PUSH2 0x1C9 SWAP4 SWAP3 SWAP2 SWAP1 PUSH2 0x8F1 JUMP JUMPDEST PUSH1 0x0 PUSH1 0x40 MLOAD DUP1 DUP4 SUB DUP2 DUP7 DUP1 EXTCODESIZE ISZERO DUP1 ISZERO PUSH2 0x1E1 JUMPI PUSH1 0x0 DUP1 REVERT JUMPDEST POP GAS DELEGATECALL ISZERO DUP1 ISZERO PUSH2 0x1F5 JUMPI RETURNDATASIZE PUSH1 0x0 DUP1 RETURNDATACOPY RETURNDATASIZE PUSH1 0x0 REVERT JUMPDEST POP POP POP POP PUSH1 0x0 PUSH20 0x0 PUSH4 0xBC2B405C SWAP1 SWAP2 PUSH1 0x3 PUSH2 0x12C PUSH1 0x40 MLOAD DUP5 PUSH4 0xFFFFFFFF AND PUSH1 0xE0 SHL DUP2 MSTORE PUSH1 0x4 ADD PUSH2 0x23A SWAP4 SWAP3 SWAP2 SWAP1 PUSH2 0x963 JUMP JUMPDEST PUSH1 0x0 PUSH1 0x40 MLOAD DUP1 DUP4 SUB DUP2 DUP7 DUP1 EXTCODESIZE ISZERO DUP1 ISZERO PUSH2 0x252 JUMPI PUSH1 0x0 DUP1 REVERT JUMPDEST POP GAS DELEGATECALL ISZERO DUP1 ISZERO PUSH2 0x266 JUMPI RETURNDATASIZE PUSH1 0x0 DUP1 RETURNDATACOPY RETURNDATASIZE PUSH1 0x0 REVERT JUMPDEST POP POP POP POP PUSH1 0x0 JUMPDEST PUSH1 0x0 PUSH20 0x0 PUSH4 0xDEB3D896 SWAP1 SWAP2 PUSH1 0x40 MLOAD DUP3 PUSH4 0xFFFFFFFF AND PUSH1 0xE0 SHL DUP2 MSTORE PUSH1 0x4 ADD PUSH2 0x2A7 SWAP2 SWAP1 PUSH2 0x99A JUMP JUMPDEST PUSH1 0x20 PUSH1 0x40 MLOAD DUP1 DUP4 SUB DUP2 DUP7 GAS DELEGATECALL ISZERO DUP1 ISZERO PUSH2 0x2C4 JUMPI RETURNDATASIZE PUSH1 0x0 DUP1 RETURNDATACOPY RETURNDATASIZE PUSH1 0x0 REVERT JUMPDEST POP POP POP POP PUSH1 0x40 MLOAD RETURNDATASIZE PUSH1 0x1F NOT PUSH1 0x1F DUP3 ADD AND DUP3 ADD DUP1 PUSH1 0x40 MSTORE POP DUP2 ADD SWAP1 PUSH2 0x2E8 SWAP2 SWAP1 PUSH2 0x9E6 JUMP JUMPDEST DUP2 LT ISZERO PUSH2 0x41B JUMPI PUSH1 0x0 DUP1 PUSH20 0x0 PUSH4 0xD1AA9E7E SWAP1 SWAP2 DUP5 PUSH1 0x40 MLOAD DUP4 PUSH4 0xFFFFFFFF AND PUSH1 0xE0 SHL DUP2 MSTORE PUSH1 0x4 ADD PUSH2 0x32C SWAP3 SWAP2 SWAP1 PUSH2 0xA22 JUMP JUMPDEST PUSH1 0x20 PUSH1 0x40 MLOAD DUP1 DUP4 SUB DUP2 DUP7 GAS DELEGATECALL ISZERO DUP1 ISZERO PUSH2 0x349 JUMPI RETURNDATASIZE PUSH1 0x0 DUP1 RETURNDATACOPY RETURNDATASIZE PUSH1 0x0 REVERT JUMPDEST POP POP POP POP PUSH1 0x40 MLOAD RETURNDATASIZE PUSH1 0x1F NOT PUSH1 0x1F DUP3 ADD AND DUP3 ADD DUP1 PUSH1 0x40 MSTORE POP DUP2 ADD SWAP1 PUSH2 0x36D SWAP2 SWAP1 PUSH2 0xA77 JUMP JUMPDEST SWAP1 POP PUSH1 0x64 DUP3 PUSH2 0x37C SWAP2 SWAP1 PUSH2 0xAD3 JUMP JUMPDEST PUSH1 0x0 PUSH20 0x0 PUSH4 0x732A2CCF SWAP1 SWAP2 DUP5 PUSH1 0x40 MLOAD DUP4 PUSH4 0xFFFFFFFF AND PUSH1 0xE0 SHL DUP2 MSTORE PUSH1 0x4 ADD PUSH2 0x3B8 SWAP3 SWAP2 SWAP1 PUSH2 0xB2D JUMP JUMPDEST PUSH1 0x20 PUSH1 0x40 MLOAD DUP1 DUP4 SUB DUP2 DUP7 GAS DELEGATECALL ISZERO DUP1 ISZERO PUSH2 0x3D5 JUMPI RETURNDATASIZE PUSH1 0x0 DUP1 RETURNDATACOPY RETURNDATASIZE PUSH1 0x0 REVERT JUMPDEST POP POP POP POP PUSH1 0x40 MLOAD RETURNDATASIZE PUSH1 0x1F NOT PUSH1 0x1F DUP3 ADD AND DUP3 ADD DUP1 PUSH1 0x40 MSTORE POP DUP2 ADD SWAP1 PUSH2 0x3F9 SWAP2 SWAP1 PUSH2 0x9E6 JUMP JUMPDEST EQ PUSH2 0x407 JUMPI PUSH2 0x406 PUSH2 0xB56 JUMP JUMPDEST JUMPDEST POP DUP1 DUP1 PUSH2 0x413 SWAP1 PUSH2 0xB85 JUMP JUMPDEST SWAP2 POP POP PUSH2 0x26D JUMP JUMPDEST POP PUSH1 0x0 PUSH20 0x0 PUSH4 0x4C60DB9C SWAP1 SWAP2 PUSH1 0x1 PUSH1 0x40 MLOAD DUP4 PUSH4 0xFFFFFFFF AND PUSH1 0xE0 SHL DUP2 MSTORE PUSH1 0x4 ADD PUSH2 0x459 SWAP3 SWAP2 SWAP1 PUSH2 0xB2D JUMP JUMPDEST PUSH1 0x0 PUSH1 0x40 MLOAD DUP1 DUP4 SUB DUP2 DUP7 DUP1 EXTCODESIZE ISZERO DUP1 ISZERO PUSH2 0x471 JUMPI PUSH1 0x0 DUP1 REVERT JUMPDEST POP GAS DELEGATECALL ISZERO DUP1 ISZERO PUSH2 0x485 JUMPI RETURNDATASIZE PUSH1 0x0 DUP1 RETURNDATACOPY RETURNDATASIZE PUSH1 0x0 REVERT JUMPDEST POP POP POP POP PUSH1 0x3 PUSH1 0x0 PUSH20 0x0 PUSH4 0xDEB3D896 SWAP1 SWAP2 PUSH1 0x40 MLOAD DUP3 PUSH4 0xFFFFFFFF AND PUSH1 0xE0 SHL DUP2 MSTORE PUSH1 0x4 ADD PUSH2 0x4C5 SWAP2 SWAP1 PUSH2 0x99A JUMP JUMPDEST PUSH1 0x20 PUSH1 0x40 MLOAD DUP1 DUP4 SUB DUP2 DUP7 GAS DELEGATECALL ISZERO DUP1 ISZERO PUSH2 0x4E2 JUMPI RETURNDATASIZE PUSH1 0x0 DUP1 RETURNDATACOPY RETURNDATASIZE PUSH1 0x0 REVERT JUMPDEST POP POP POP POP PUSH1 0x40 MLOAD RETURNDATASIZE PUSH1 0x1F NOT PUSH1 0x1F DUP3 ADD AND DUP3 ADD DUP1 PUSH1 0x40 MSTORE POP DUP2 ADD SWAP1 PUSH2 0x506 SWAP2 SWAP1 PUSH2 0x9E6 JUMP JUMPDEST EQ PUSH2 0x546 JUMPI PUSH1 0x40 MLOAD PUSH32 0x8C379A000000000000000000000000000000000000000000000000000000000 DUP2 MSTORE PUSH1 0x4 ADD PUSH2 0x53D SWAP1 PUSH2 0xC2B JUMP JUMPDEST PUSH1 0x40 MLOAD DUP1 SWAP2 SUB SWAP1 REVERT JUMPDEST PUSH1 0x0 PUSH20 0xFFFFFFFFFFFFFFFFFFFFFFFFFFFFFFFFFFFFFFFF AND PUSH1 0x0 PUSH20 0x0 PUSH4 0xD1AA9E7E SWAP1 SWAP2 PUSH1 0x0 PUSH1 0x40 MLOAD DUP4 PUSH4 0xFFFFFFFF AND PUSH1 0xE0 SHL DUP2 MSTORE PUSH1 0x4 ADD PUSH2 0x59B SWAP3 SWAP2 SWAP1 PUSH2 0xC4B JUMP JUMPDEST PUSH1 0x20 PUSH1 0x40 MLOAD DUP1 DUP4 SUB DUP2 DUP7 GAS DELEGATECALL ISZERO DUP1 ISZERO PUSH2 0x5B8 JUMPI RETURNDATASIZE PUSH1 0x0 DUP1 RETURNDATACOPY RETURNDATASIZE PUSH1 0x0 REVERT JUMPDEST POP POP POP POP PUSH1 0x40 MLOAD RETURNDATASIZE PUSH1 0x1F NOT PUSH1 0x1F DUP3 ADD AND DUP3 ADD DUP1 PUSH1 0x40 MSTORE POP DUP2 ADD SWAP1 PUSH2 0x5DC SWAP2 SWAP1 PUSH2 0xA77 JUMP JUMPDEST PUSH20 0xFFFFFFFFFFFFFFFFFFFFFFFFFFFFFFFFFFFFFFFF AND EQ PUSH2 0x600 JUMPI PUSH2 0x5FF PUSH2 0xB56 JUMP JUMPDEST JUMPDEST PUSH1 0x3 PUSH20 0xFFFFFFFFFFFFFFFFFFFFFFFFFFFFFFFFFFFFFFFF AND PUSH1 0x0 PUSH20 0x0 PUSH4 0xD1AA9E7E SWAP1 SWAP2 PUSH1 0x1 PUSH1 0x40 MLOAD DUP4 PUSH4 0xFFFFFFFF AND PUSH1 0xE0 SHL DUP2 MSTORE PUSH1 0x4 ADD PUSH2 0x655 SWAP3 SWAP2 SWAP1 PUSH2 0xCAF JUMP JUMPDEST PUSH1 0x20 PUSH1 0x40 MLOAD DUP1 DUP4 SUB DUP2 DUP7 GAS DELEGATECALL ISZERO DUP1 ISZERO PUSH2 0x672 JUMPI RETURNDATASIZE PUSH1 0x0 DUP1 RETURNDATACOPY RETURNDATASIZE PUSH1 0x0 REVERT JUMPDEST POP POP POP POP PUSH1 0x40 MLOAD RETURNDATASIZE PUSH1 0x1F NOT PUSH1 0x1F DUP3 ADD AND DUP3 ADD DUP1 PUSH1 0x40 MSTORE POP DUP2 ADD SWAP1 PUSH2 0x696 SWAP2 SWAP1 PUSH2 0xA77 JUMP JUMPDEST PUSH20 0xFFFFFFFFFFFFFFFFFFFFFFFFFFFFFFFFFFFFFFFF AND EQ PUSH2 0x6BA JUMPI PUSH2 0x6B9 PUSH2 0xB56 JUMP JUMPDEST JUMPDEST PUSH1 0x2 PUSH20 0xFFFFFFFFFFFFFFFFFFFFFFFFFFFFFFFFFFFFFFFF AND PUSH1 0x0 PUSH20 0x0 PUSH4 0xD1AA9E7E SWAP1 SWAP2 PUSH1 0x2 PUSH1 0x40 MLOAD DUP4 PUSH4 0xFFFFFFFF AND PUSH1 0xE0 SHL DUP2 MSTORE PUSH1 0x4 ADD PUSH2 0x70F SWAP3 SWAP2 SWAP1 PUSH2 0xD13 JUMP JUMPDEST PUSH1 0x20 PUSH1 0x40 MLOAD DUP1 DUP4 SUB DUP2 DUP7 GAS DELEGATECALL ISZERO DUP1 ISZERO PUSH2 0x72C JUMPI RETURNDATASIZE PUSH1 0x0 DUP1 RETURNDATACOPY RETURNDATASIZE PUSH1 0x0 REVERT JUMPDEST POP POP POP POP PUSH1 0x40 MLOAD RETURNDATASIZE PUSH1 0x1F NOT PUSH1 0x1F DUP3 ADD AND DUP3 ADD DUP1 PUSH1 0x40 MSTORE POP DUP2 ADD SWAP1 PUSH2 0x750 SWAP2 SWAP1 PUSH2 0xA77 JUMP JUMPDEST PUSH20 0xFFFFFFFFFFFFFFFFFFFFFFFFFFFFFFFFFFFFFFFF AND EQ PUSH2 0x774 JUMPI PUSH2 0x773 PUSH2 0xB56 JUMP JUMPDEST JUMPDEST JUMP JUMPDEST DUP1 DUP3 MSTORE POP POP JUMP JUMPDEST PUSH1 0x0 PUSH20 0xFFFFFFFFFFFFFFFFFFFFFFFFFFFFFFFFFFFFFFFF DUP3 AND SWAP1 POP SWAP2 SWAP1 POP JUMP JUMPDEST PUSH1 0x0 PUSH2 0x7A8 DUP3 PUSH2 0x77D JUMP JUMPDEST SWAP1 POP SWAP2 SWAP1 POP JUMP JUMPDEST PUSH2 0x7B8 DUP2 PUSH2 0x79D JUMP JUMPDEST DUP3 MSTORE POP POP JUMP JUMPDEST PUSH1 0x0 DUP2 SWAP1 POP SWAP2 SWAP1 POP JUMP JUMPDEST PUSH1 0x0 DUP2 SWAP1 POP SWAP2 SWAP1 POP JUMP JUMPDEST PUSH1 0x0 DUP2 SWAP1 POP SWAP2 SWAP1 POP JUMP JUMPDEST PUSH1 0x0 PUSH2 0x7F7 PUSH2 0x7F2 PUSH2 0x7ED DUP5 PUSH2 0x7BE JUMP JUMPDEST PUSH2 0x7D2 JUMP JUMPDEST PUSH2 0x7C8 JUMP JUMPDEST SWAP1 POP SWAP2 SWAP1 POP JUMP JUMPDEST PUSH2 0x807 DUP2 PUSH2 0x7DC JUMP JUMPDEST DUP3 MSTORE POP POP JUMP JUMPDEST PUSH1 0x0 PUSH1 0x60 DUP3 ADD SWAP1 POP PUSH2 0x822 PUSH1 0x0 DUP4 ADD DUP7 PUSH2 0x776 JUMP JUMPDEST PUSH2 0x82F PUSH1 0x20 DUP4 ADD DUP6 PUSH2 0x7AF JUMP JUMPDEST PUSH2 0x83C PUSH1 0x40 DUP4 ADD DUP5 PUSH2 0x7FE JUMP JUMPDEST SWAP5 SWAP4 POP POP POP POP JUMP JUMPDEST PUSH1 0x0 DUP2 SWAP1 POP SWAP2 SWAP1 POP JUMP JUMPDEST PUSH1 0x0 PUSH2 0x869 PUSH2 0x864 PUSH2 0x85F DUP5 PUSH2 0x844 JUMP JUMPDEST PUSH2 0x7D2 JUMP JUMPDEST PUSH2 0x7C8 JUMP JUMPDEST SWAP1 POP SWAP2 SWAP1 POP JUMP JUMPDEST PUSH2 0x879 DUP2 PUSH2 0x84E JUMP JUMPDEST DUP3 MSTORE POP POP JUMP JUMPDEST PUSH1 0x0 PUSH1 0x60 DUP3 ADD SWAP1 POP PUSH2 0x894 PUSH1 0x0 DUP4 ADD DUP7 PUSH2 0x776 JUMP JUMPDEST PUSH2 0x8A1 PUSH1 0x20 DUP4 ADD DUP6 PUSH2 0x7AF JUMP JUMPDEST PUSH2 0x8AE PUSH1 0x40 DUP4 ADD DUP5 PUSH2 0x870 JUMP JUMPDEST SWAP5 SWAP4 POP POP POP POP JUMP JUMPDEST PUSH1 0x0 DUP2 SWAP1 POP SWAP2 SWAP1 POP JUMP JUMPDEST PUSH1 0x0 PUSH2 0x8DB PUSH2 0x8D6 PUSH2 0x8D1 DUP5 PUSH2 0x8B6 JUMP JUMPDEST PUSH2 0x7D2 JUMP JUMPDEST PUSH2 0x7C8 JUMP JUMPDEST SWAP1 POP SWAP2 SWAP1 POP JUMP JUMPDEST PUSH2 0x8EB DUP2 PUSH2 0x8C0 JUMP JUMPDEST DUP3 MSTORE POP POP JUMP JUMPDEST PUSH1 0x0 PUSH1 0x60 DUP3 ADD SWAP1 POP PUSH2 0x906 PUSH1 0x0 DUP4 ADD DUP7 PUSH2 0x776 JUMP JUMPDEST PUSH2 0x913 PUSH1 0x20 DUP4 ADD DUP6 PUSH2 0x7AF JUMP JUMPDEST PUSH2 0x920 PUSH1 0x40 DUP4 ADD DUP5 PUSH2 0x8E2 JUMP JUMPDEST SWAP5 SWAP4 POP POP POP POP JUMP JUMPDEST PUSH1 0x0 DUP2 SWAP1 POP SWAP2 SWAP1 POP JUMP JUMPDEST PUSH1 0x0 PUSH2 0x94D PUSH2 0x948 PUSH2 0x943 DUP5 PUSH2 0x928 JUMP JUMPDEST PUSH2 0x7D2 JUMP JUMPDEST PUSH2 0x7C8 JUMP JUMPDEST SWAP1 POP SWAP2 SWAP1 POP JUMP JUMPDEST PUSH2 0x95D DUP2 PUSH2 0x932 JUMP JUMPDEST DUP3 MSTORE POP POP JUMP JUMPDEST PUSH1 0x0 PUSH1 0x60 DUP3 ADD SWAP1 POP PUSH2 0x978 PUSH1 0x0 DUP4 ADD DUP7 PUSH2 0x776 JUMP JUMPDEST PUSH2 0x985 PUSH1 0x20 DUP4 ADD DUP6 PUSH2 0x7AF JUMP JUMPDEST PUSH2 0x992 PUSH1 0x40 DUP4 ADD DUP5 PUSH2 0x954 JUMP JUMPDEST SWAP5 SWAP4 POP POP POP POP JUMP JUMPDEST PUSH1 0x0 PUSH1 0x20 DUP3 ADD SWAP1 POP PUSH2 0x9AF PUSH1 0x0 DUP4 ADD DUP5 PUSH2 0x776 JUMP JUMPDEST SWAP3 SWAP2 POP POP JUMP JUMPDEST PUSH1 0x0 DUP1 REVERT JUMPDEST PUSH2 0x9C3 DUP2 PUSH2 0x7C8 JUMP JUMPDEST DUP2 EQ PUSH2 0x9CE JUMPI PUSH1 0x0 DUP1 REVERT JUMPDEST POP JUMP JUMPDEST PUSH1 0x0 DUP2 MLOAD SWAP1 POP PUSH2 0x9E0 DUP2 PUSH2 0x9BA JUMP JUMPDEST SWAP3 SWAP2 POP POP JUMP JUMPDEST PUSH1 0x0 PUSH1 0x20 DUP3 DUP5 SUB SLT ISZERO PUSH2 0x9FC JUMPI PUSH2 0x9FB PUSH2 0x9B5 JUMP JUMPDEST JUMPDEST PUSH1 0x0 PUSH2 0xA0A DUP5 DUP3 DUP6 ADD PUSH2 0x9D1 JUMP JUMPDEST SWAP2 POP POP SWAP3 SWAP2 POP POP JUMP JUMPDEST PUSH2 0xA1C DUP2 PUSH2 0x7C8 JUMP JUMPDEST DUP3 MSTORE POP POP JUMP JUMPDEST PUSH1 0x0 PUSH1 0x40 DUP3 ADD SWAP1 POP PUSH2 0xA37 PUSH1 0x0 DUP4 ADD DUP6 PUSH2 0x776 JUMP JUMPDEST PUSH2 0xA44 PUSH1 0x20 DUP4 ADD DUP5 PUSH2 0xA13 JUMP JUMPDEST SWAP4 SWAP3 POP POP POP JUMP JUMPDEST PUSH2 0xA54 DUP2 PUSH2 0x79D JUMP JUMPDEST DUP2 EQ PUSH2 0xA5F JUMPI PUSH1 0x0 DUP1 REVERT JUMPDEST POP JUMP JUMPDEST PUSH1 0x0 DUP2 MLOAD SWAP1 POP PUSH2 0xA71 DUP2 PUSH2 0xA4B JUMP JUMPDEST SWAP3 SWAP2 POP POP JUMP JUMPDEST PUSH1 0x0 PUSH1 0x20 DUP3 DUP5 SUB SLT ISZERO PUSH2 0xA8D JUMPI PUSH2 0xA8C PUSH2 0x9B5 JUMP JUMPDEST JUMPDEST PUSH1 0x0 PUSH2 0xA9B DUP5 DUP3 DUP6 ADD PUSH2 0xA62 JUMP JUMPDEST SWAP2 POP POP SWAP3 SWAP2 POP POP JUMP JUMPDEST PUSH32 0x4E487B7100000000000000000000000000000000000000000000000000000000 PUSH1 0x0 MSTORE PUSH1 0x11 PUSH1 0x4 MSTORE PUSH1 0x24 PUSH1 0x0 REVERT JUMPDEST PUSH1 0x0 PUSH2 0xADE DUP3 PUSH2 0x7C8 JUMP JUMPDEST SWAP2 POP PUSH2 0xAE9 DUP4 PUSH2 0x7C8 JUMP JUMPDEST SWAP3 POP DUP2 PUSH32 0xFFFFFFFFFFFFFFFFFFFFFFFFFFFFFFFFFFFFFFFFFFFFFFFFFFFFFFFFFFFFFFFF DIV DUP4 GT DUP3 ISZERO ISZERO AND ISZERO PUSH2 0xB22 JUMPI PUSH2 0xB21 PUSH2 0xAA4 JUMP JUMPDEST JUMPDEST DUP3 DUP3 MUL SWAP1 POP SWAP3 SWAP2 POP POP JUMP JUMPDEST PUSH1 0x0 PUSH1 0x40 DUP3 ADD SWAP1 POP PUSH2 0xB42 PUSH1 0x0 DUP4 ADD DUP6 PUSH2 0x776 JUMP JUMPDEST PUSH2 0xB4F PUSH1 0x20 DUP4 ADD DUP5 PUSH2 0x7AF JUMP JUMPDEST SWAP4 SWAP3 POP POP POP JUMP JUMPDEST PUSH32 0x4E487B7100000000000000000000000000000000000000000000000000000000 PUSH1 0x0 MSTORE PUSH1 0x1 PUSH1 0x4 MSTORE PUSH1 0x24 PUSH1 0x0 REVERT JUMPDEST PUSH1 0x0 PUSH2 0xB90 DUP3 PUSH2 0x7C8 JUMP JUMPDEST SWAP2 POP PUSH32 0xFFFFFFFFFFFFFFFFFFFFFFFFFFFFFFFFFFFFFFFFFFFFFFFFFFFFFFFFFFFFFFFF DUP3 EQ ISZERO PUSH2 0xBC3 JUMPI PUSH2 0xBC2 PUSH2 0xAA4 JUMP JUMPDEST JUMPDEST PUSH1 0x1 DUP3 ADD SWAP1 POP SWAP2 SWAP1 POP JUMP JUMPDEST PUSH1 0x0 DUP3 DUP3 MSTORE PUSH1 0x20 DUP3 ADD SWAP1 POP SWAP3 SWAP2 POP POP JUMP JUMPDEST PUSH32 0x6572726F722073697A65206D6170000000000000000000000000000000000000 PUSH1 0x0 DUP3 ADD MSTORE POP JUMP JUMPDEST PUSH1 0x0 PUSH2 0xC15 PUSH1 0xE DUP4 PUSH2 0xBCE JUMP JUMPDEST SWAP2 POP PUSH2 0xC20 DUP3 PUSH2 0xBDF JUMP JUMPDEST PUSH1 0x20 DUP3 ADD SWAP1 POP SWAP2 SWAP1 POP JUMP JUMPDEST PUSH1 0x0 PUSH1 0x20 DUP3 ADD SWAP1 POP DUP2 DUP2 SUB PUSH1 0x0 DUP4 ADD MSTORE PUSH2 0xC44 DUP2 PUSH2 0xC08 JUMP JUMPDEST SWAP1 POP SWAP2 SWAP1 POP JUMP JUMPDEST PUSH1 0x0 PUSH1 0x40 DUP3 ADD SWAP1 POP PUSH2 0xC60 PUSH1 0x0 DUP4 ADD DUP6 PUSH2 0x776 JUMP JUMPDEST PUSH2 0xC6D PUSH1 0x20 DUP4 ADD DUP5 PUSH2 0x7FE JUMP JUMPDEST SWAP4 SWAP3 POP POP POP JUMP JUMPDEST PUSH1 0x0 DUP2 SWAP1 POP SWAP2 SWAP1 POP JUMP JUMPDEST PUSH1 0x0 PUSH2 0xC99 PUSH2 0xC94 PUSH2 0xC8F DUP5 PUSH2 0xC74 JUMP JUMPDEST PUSH2 0x7D2 JUMP JUMPDEST PUSH2 0x7C8 JUMP JUMPDEST SWAP1 POP SWAP2 SWAP1 POP JUMP JUMPDEST PUSH2 0xCA9 DUP2 PUSH2 0xC7E JUMP JUMPDEST DUP3 MSTORE POP POP JUMP JUMPDEST PUSH1 0x0 PUSH1 0x40 DUP3 ADD SWAP1 POP PUSH2 0xCC4 PUSH1 0x0 DUP4 ADD DUP6 PUSH2 0x776 JUMP JUMPDEST PUSH2 0xCD1 PUSH1 0x20 DUP4 ADD DUP5 PUSH2 0xCA0 JUMP JUMPDEST SWAP4 SWAP3 POP POP POP JUMP JUMPDEST PUSH1 0x0 DUP2 SWAP1 POP SWAP2 SWAP1 POP JUMP JUMPDEST PUSH1 0x0 PUSH2 0xCFD PUSH2 0xCF8 PUSH2 0xCF3 DUP5 PUSH2 0xCD8 JUMP JUMPDEST PUSH2 0x7D2 JUMP JUMPDEST PUSH2 0x7C8 JUMP JUMPDEST SWAP1 POP SWAP2 SWAP1 POP JUMP JUMPDEST PUSH2 0xD0D DUP2 PUSH2 0xCE2 JUMP JUMPDEST DUP3 MSTORE POP POP JUMP JUMPDEST PUSH1 0x0 PUSH1 0x40 DUP3 ADD SWAP1 POP PUSH2 0xD28 PUSH1 0x0 DUP4 ADD DUP6 PUSH2 0x776 JUMP JUMPDEST PUSH2 0xD35 PUSH1 0x20 DUP4 ADD DUP5 PUSH2 0xD04 JUMP JUMPDEST SWAP4 SWAP3 POP POP POP JUMP INVALID LOG2 PUSH5 0x6970667358 0x22 SLT KECCAK256 0xA6 0xFC 0xEF SWAP11 SWAP15 PUSH14 0xAA840AB0C332F401285CF56CEA37 0xE3 DUP16 0x2A 0xEC 0x2B DIV 0x5F PUSH13 0x5B4920F464736F6C634300080A STOP CALLER "
		},
		"gasEstimates": {
			"creation": {
				"codeDepositCost": "688400",
				"executionCost": "721",
				"totalCost": "689121"
			},
			"external": {
				"testIterableMap()": "infinite"
			}
		},
		"methodIdentifiers": {
			"testIterableMap()": "d230a0d5"
		}
	},
	"abi": [
		{
			"inputs": [],
			"name": "testIterableMap",
			"outputs": [],
			"stateMutability": "nonpayable",
			"type": "function"
		}
	]
}